{
  "_format": "hh-sol-artifact-1",
  "contractName": "Swap",
  "sourceName": "contracts/Swap.sol",
  "abi": [
    {
      "anonymous": false,
      "inputs": [
        {
          "indexed": true,
          "internalType": "address",
          "name": "user",
          "type": "address"
        },
        {
          "indexed": false,
          "internalType": "string",
          "name": "fromToken",
          "type": "string"
        },
        {
          "indexed": false,
          "internalType": "string",
          "name": "toToken",
          "type": "string"
        },
        {
          "indexed": false,
          "internalType": "uint256",
          "name": "fromAmount",
          "type": "uint256"
        },
        {
          "indexed": false,
          "internalType": "uint256",
          "name": "toAmount",
          "type": "uint256"
        }
      ],
      "name": "SwapExecuted",
      "type": "event"
    },
    {
      "inputs": [],
      "name": "MON_TO_BNB_RATE",
      "outputs": [
        {
          "internalType": "uint256",
          "name": "",
          "type": "uint256"
        }
      ],
      "stateMutability": "view",
      "type": "function"
    },
    {
      "inputs": [],
      "name": "MON_TO_DAI_RATE",
      "outputs": [
        {
          "internalType": "uint256",
          "name": "",
          "type": "uint256"
        }
      ],
      "stateMutability": "view",
      "type": "function"
    },
    {
      "inputs": [],
      "name": "MON_TO_ETH_RATE",
      "outputs": [
        {
          "internalType": "uint256",
          "name": "",
          "type": "uint256"
        }
      ],
      "stateMutability": "view",
      "type": "function"
    },
    {
      "inputs": [],
      "name": "MON_TO_MATIC_RATE",
      "outputs": [
        {
          "internalType": "uint256",
          "name": "",
          "type": "uint256"
        }
      ],
      "stateMutability": "view",
      "type": "function"
    },
    {
      "inputs": [],
      "name": "MON_TO_USDT_RATE",
      "outputs": [
        {
          "internalType": "uint256",
          "name": "",
          "type": "uint256"
        }
      ],
      "stateMutability": "view",
      "type": "function"
    },
    {
      "inputs": [
        {
          "internalType": "address",
          "name": "",
          "type": "address"
        }
      ],
      "name": "bnbBalances",
      "outputs": [
        {
          "internalType": "uint256",
          "name": "",
          "type": "uint256"
        }
      ],
      "stateMutability": "view",
      "type": "function"
    },
    {
      "inputs": [
        {
          "internalType": "address",
          "name": "",
          "type": "address"
        }
      ],
      "name": "daiBalances",
      "outputs": [
        {
          "internalType": "uint256",
          "name": "",
          "type": "uint256"
        }
      ],
      "stateMutability": "view",
      "type": "function"
    },
    {
      "inputs": [
        {
          "internalType": "uint256",
          "name": "amount",
          "type": "uint256"
        }
      ],
      "name": "depositBNB",
      "outputs": [],
      "stateMutability": "nonpayable",
      "type": "function"
    },
    {
      "inputs": [
        {
          "internalType": "uint256",
          "name": "amount",
          "type": "uint256"
        }
      ],
      "name": "depositDAI",
      "outputs": [],
      "stateMutability": "nonpayable",
      "type": "function"
    },
    {
      "inputs": [],
      "name": "depositETH",
      "outputs": [],
      "stateMutability": "payable",
      "type": "function"
    },
    {
      "inputs": [
        {
          "internalType": "uint256",
          "name": "amount",
          "type": "uint256"
        }
      ],
      "name": "depositMATIC",
      "outputs": [],
      "stateMutability": "nonpayable",
      "type": "function"
    },
    {
      "inputs": [],
      "name": "depositMON",
      "outputs": [],
      "stateMutability": "payable",
      "type": "function"
    },
    {
      "inputs": [
        {
          "internalType": "uint256",
          "name": "amount",
          "type": "uint256"
        }
      ],
      "name": "depositUSDT",
      "outputs": [],
      "stateMutability": "nonpayable",
      "type": "function"
    },
    {
      "inputs": [
        {
          "internalType": "address",
          "name": "",
          "type": "address"
        }
      ],
      "name": "ethBalances",
      "outputs": [
        {
          "internalType": "uint256",
          "name": "",
          "type": "uint256"
        }
      ],
      "stateMutability": "view",
      "type": "function"
    },
    {
      "inputs": [
        {
          "internalType": "address",
          "name": "user",
          "type": "address"
        }
      ],
      "name": "getBalances",
      "outputs": [
        {
          "internalType": "uint256",
          "name": "monBalance",
          "type": "uint256"
        },
        {
          "internalType": "uint256",
          "name": "daiBalance",
          "type": "uint256"
        },
        {
          "internalType": "uint256",
          "name": "usdtBalance",
          "type": "uint256"
        },
        {
          "internalType": "uint256",
          "name": "ethBalance",
          "type": "uint256"
        },
        {
          "internalType": "uint256",
          "name": "bnbBalance",
          "type": "uint256"
        },
        {
          "internalType": "uint256",
          "name": "maticBalance",
          "type": "uint256"
        }
      ],
      "stateMutability": "view",
      "type": "function"
    },
    {
      "inputs": [
        {
          "internalType": "address",
          "name": "",
          "type": "address"
        }
      ],
      "name": "maticBalances",
      "outputs": [
        {
          "internalType": "uint256",
          "name": "",
          "type": "uint256"
        }
      ],
      "stateMutability": "view",
      "type": "function"
    },
    {
      "inputs": [
        {
          "internalType": "address",
          "name": "",
          "type": "address"
        }
      ],
      "name": "monBalances",
      "outputs": [
        {
          "internalType": "uint256",
          "name": "",
          "type": "uint256"
        }
      ],
      "stateMutability": "view",
      "type": "function"
    },
    {
      "inputs": [
        {
          "internalType": "uint256",
          "name": "bnbAmount",
          "type": "uint256"
        }
      ],
      "name": "swapBNBForMON",
      "outputs": [],
      "stateMutability": "nonpayable",
      "type": "function"
    },
    {
      "inputs": [
        {
          "internalType": "uint256",
          "name": "daiAmount",
          "type": "uint256"
        }
      ],
      "name": "swapDAIForMON",
      "outputs": [],
      "stateMutability": "nonpayable",
      "type": "function"
    },
    {
      "inputs": [
        {
          "internalType": "uint256",
          "name": "ethAmount",
          "type": "uint256"
        }
      ],
      "name": "swapETHForMON",
      "outputs": [],
      "stateMutability": "nonpayable",
      "type": "function"
    },
    {
      "inputs": [
        {
          "internalType": "uint256",
          "name": "maticAmount",
          "type": "uint256"
        }
      ],
      "name": "swapMATICForMON",
      "outputs": [],
      "stateMutability": "nonpayable",
      "type": "function"
    },
    {
      "inputs": [
        {
          "internalType": "uint256",
          "name": "monAmount",
          "type": "uint256"
        }
      ],
      "name": "swapMONForBNB",
      "outputs": [],
      "stateMutability": "nonpayable",
      "type": "function"
    },
    {
      "inputs": [
        {
          "internalType": "uint256",
          "name": "monAmount",
          "type": "uint256"
        }
      ],
      "name": "swapMONForDAI",
      "outputs": [],
      "stateMutability": "nonpayable",
      "type": "function"
    },
    {
      "inputs": [
        {
          "internalType": "uint256",
          "name": "monAmount",
          "type": "uint256"
        }
      ],
      "name": "swapMONForETH",
      "outputs": [],
      "stateMutability": "nonpayable",
      "type": "function"
    },
    {
      "inputs": [
        {
          "internalType": "uint256",
          "name": "monAmount",
          "type": "uint256"
        }
      ],
      "name": "swapMONForMATIC",
      "outputs": [],
      "stateMutability": "nonpayable",
      "type": "function"
    },
    {
      "inputs": [
        {
          "internalType": "uint256",
          "name": "monAmount",
          "type": "uint256"
        }
      ],
      "name": "swapMONForUSDT",
      "outputs": [],
      "stateMutability": "nonpayable",
      "type": "function"
    },
    {
      "inputs": [
        {
          "internalType": "uint256",
          "name": "usdtAmount",
          "type": "uint256"
        }
      ],
      "name": "swapUSDTForMON",
      "outputs": [],
      "stateMutability": "nonpayable",
      "type": "function"
    },
    {
      "inputs": [
        {
          "internalType": "address",
          "name": "",
          "type": "address"
        }
      ],
      "name": "usdtBalances",
      "outputs": [
        {
          "internalType": "uint256",
          "name": "",
          "type": "uint256"
        }
      ],
      "stateMutability": "view",
      "type": "function"
    }
  ],
  "bytecode": "0x6080604052348015600f57600080fd5b5061250a8061001f6000396000f3fe6080604052600436106101b75760003560e01c8063ab374187116100ec578063e7c80f171161008a578063f6326fb311610064578063f6326fb3146105fa578063f8b51c4214610604578063fb5436ec1461062d578063fbf01d671461066a576101b7565b8063e7c80f171461056b578063e80de25c14610594578063ef067342146105bd576101b7565b8063c84aae17116100c6578063c84aae171461049a578063d5eeb368146104dc578063e591731f14610505578063e6ff1ee11461052e576101b7565b8063ab3741871461041f578063b092797014610448578063c814ad8e14610471576101b7565b8063582489cb116101595780637405076311610133578063740507631461037757806383afd44f146103a25780638b8500ff146103cd5780639da90f19146103f6576101b7565b8063582489cb146102e65780635e8f05cc146103235780635ed74a6e1461034e576101b7565b80631f604f76116101955780631f604f761461024d578063365833e1146102765780633cfba0e31461029f5780634c98d7f3146102dc576101b7565b80631761d4d8146101bc5780631890aad4146101e75780631e6dafa014610210575b600080fd5b3480156101c857600080fd5b506101d1610695565b6040516101de9190611abf565b60405180910390f35b3480156101f357600080fd5b5061020e60048036038101906102099190611b0b565b61069a565b005b34801561021c57600080fd5b5061023760048036038101906102329190611b96565b61082d565b6040516102449190611abf565b60405180910390f35b34801561025957600080fd5b50610274600480360381019061026f9190611b0b565b610845565b005b34801561028257600080fd5b5061029d60048036038101906102989190611b0b565b6109d7565b005b3480156102ab57600080fd5b506102c660048036038101906102c19190611b96565b610a30565b6040516102d39190611abf565b60405180910390f35b6102e4610a48565b005b3480156102f257600080fd5b5061030d60048036038101906103089190611b96565b610a9f565b60405161031a9190611abf565b60405180910390f35b34801561032f57600080fd5b50610338610ab7565b6040516103459190611abf565b60405180910390f35b34801561035a57600080fd5b5061037560048036038101906103709190611b0b565b610abd565b005b34801561038357600080fd5b5061038c610c4e565b6040516103999190611abf565b60405180910390f35b3480156103ae57600080fd5b506103b7610c53565b6040516103c49190611abf565b60405180910390f35b3480156103d957600080fd5b506103f460048036038101906103ef9190611b0b565b610c59565b005b34801561040257600080fd5b5061041d60048036038101906104189190611b0b565b610cb2565b005b34801561042b57600080fd5b5061044660048036038101906104419190611b0b565b610d0b565b005b34801561045457600080fd5b5061046f600480360381019061046a9190611b0b565b610e9d565b005b34801561047d57600080fd5b5061049860048036038101906104939190611b0b565b611030565b005b3480156104a657600080fd5b506104c160048036038101906104bc9190611b96565b6111c1565b6040516104d396959493929190611bc3565b60405180910390f35b3480156104e857600080fd5b5061050360048036038101906104fe9190611b0b565b61135e565b005b34801561051157600080fd5b5061052c60048036038101906105279190611b0b565b6114f0565b005b34801561053a57600080fd5b5061055560048036038101906105509190611b96565b611683565b6040516105629190611abf565b60405180910390f35b34801561057757600080fd5b50610592600480360381019061058d9190611b0b565b61169b565b005b3480156105a057600080fd5b506105bb60048036038101906105b69190611b0b565b6116f4565b005b3480156105c957600080fd5b506105e460048036038101906105df9190611b96565b611886565b6040516105f19190611abf565b60405180910390f35b61060261189e565b005b34801561061057600080fd5b5061062b60048036038101906106269190611b0b565b6118f6565b005b34801561063957600080fd5b50610654600480360381019061064f9190611b96565b611a88565b6040516106619190611abf565b60405180910390f35b34801561067657600080fd5b5061067f611aa0565b60405161068c9190611abf565b60405180910390f35b600581565b80600160003373ffffffffffffffffffffffffffffffffffffffff1673ffffffffffffffffffffffffffffffffffffffff16815260200190815260200160002054101561071c576040517f08c379a000000000000000000000000000000000000000000000000000000000815260040161071390611c81565b60405180910390fd5b60006109c48261072c9190611cff565b905081600160003373ffffffffffffffffffffffffffffffffffffffff1673ffffffffffffffffffffffffffffffffffffffff168152602001908152602001600020600082825461077d9190611d30565b92505081905550806000803373ffffffffffffffffffffffffffffffffffffffff1673ffffffffffffffffffffffffffffffffffffffff16815260200190815260200160002060008282546107d29190611d64565b925050819055503373ffffffffffffffffffffffffffffffffffffffff167fbe28245e56c141dd9dddce73731b090cb4ca241a4d2a22a77ed6425dc5e1b1c68383604051610821929190611e30565b60405180910390a25050565b60006020528060005260406000206000915090505481565b80600360003373ffffffffffffffffffffffffffffffffffffffff1673ffffffffffffffffffffffffffffffffffffffff1681526020019081526020016000205410156108c7576040517f08c379a00000000000000000000000000000000000000000000000000000000081526004016108be90611ecb565b60405180910390fd5b60006001826108d69190611cff565b905081600360003373ffffffffffffffffffffffffffffffffffffffff1673ffffffffffffffffffffffffffffffffffffffff16815260200190815260200160002060008282546109279190611d30565b92505081905550806000803373ffffffffffffffffffffffffffffffffffffffff1673ffffffffffffffffffffffffffffffffffffffff168152602001908152602001600020600082825461097c9190611d64565b925050819055503373ffffffffffffffffffffffffffffffffffffffff167fbe28245e56c141dd9dddce73731b090cb4ca241a4d2a22a77ed6425dc5e1b1c683836040516109cb929190611f37565b60405180910390a25050565b80600160003373ffffffffffffffffffffffffffffffffffffffff1673ffffffffffffffffffffffffffffffffffffffff1681526020019081526020016000206000828254610a269190611d64565b9250508190555050565b60036020528060005260406000206000915090505481565b346000803373ffffffffffffffffffffffffffffffffffffffff1673ffffffffffffffffffffffffffffffffffffffff1681526020019081526020016000206000828254610a969190611d64565b92505081905550565b60026020528060005260406000206000915090505481565b6103e881565b806000803373ffffffffffffffffffffffffffffffffffffffff1673ffffffffffffffffffffffffffffffffffffffff168152602001908152602001600020541015610b3e576040517f08c379a0000000000000000000000000000000000000000000000000000000008152600401610b3590611fd2565b60405180910390fd5b6000600582610b4d9190611ff2565b9050816000803373ffffffffffffffffffffffffffffffffffffffff1673ffffffffffffffffffffffffffffffffffffffff1681526020019081526020016000206000828254610b9d9190611d30565b9250508190555080600460003373ffffffffffffffffffffffffffffffffffffffff1673ffffffffffffffffffffffffffffffffffffffff1681526020019081526020016000206000828254610bf39190611d64565b925050819055503373ffffffffffffffffffffffffffffffffffffffff167fbe28245e56c141dd9dddce73731b090cb4ca241a4d2a22a77ed6425dc5e1b1c68383604051610c42929190612080565b60405180910390a25050565b600181565b6109c481565b80600560003373ffffffffffffffffffffffffffffffffffffffff1673ffffffffffffffffffffffffffffffffffffffff1681526020019081526020016000206000828254610ca89190611d64565b9250508190555050565b80600460003373ffffffffffffffffffffffffffffffffffffffff1673ffffffffffffffffffffffffffffffffffffffff1681526020019081526020016000206000828254610d019190611d64565b9250508190555050565b806000803373ffffffffffffffffffffffffffffffffffffffff1673ffffffffffffffffffffffffffffffffffffffff168152602001908152602001600020541015610d8c576040517f08c379a0000000000000000000000000000000000000000000000000000000008152600401610d8390611fd2565b60405180910390fd5b60006103e882610d9c9190611ff2565b9050816000803373ffffffffffffffffffffffffffffffffffffffff1673ffffffffffffffffffffffffffffffffffffffff1681526020019081526020016000206000828254610dec9190611d30565b9250508190555080600560003373ffffffffffffffffffffffffffffffffffffffff1673ffffffffffffffffffffffffffffffffffffffff1681526020019081526020016000206000828254610e429190611d64565b925050819055503373ffffffffffffffffffffffffffffffffffffffff167fbe28245e56c141dd9dddce73731b090cb4ca241a4d2a22a77ed6425dc5e1b1c68383604051610e9192919061211b565b60405180910390a25050565b80600260003373ffffffffffffffffffffffffffffffffffffffff1673ffffffffffffffffffffffffffffffffffffffff168152602001908152602001600020541015610f1f576040517f08c379a0000000000000000000000000000000000000000000000000000000008152600401610f16906121b6565b60405180910390fd5b60006109c482610f2f9190611cff565b905081600260003373ffffffffffffffffffffffffffffffffffffffff1673ffffffffffffffffffffffffffffffffffffffff1681526020019081526020016000206000828254610f809190611d30565b92505081905550806000803373ffffffffffffffffffffffffffffffffffffffff1673ffffffffffffffffffffffffffffffffffffffff1681526020019081526020016000206000828254610fd59190611d64565b925050819055503373ffffffffffffffffffffffffffffffffffffffff167fbe28245e56c141dd9dddce73731b090cb4ca241a4d2a22a77ed6425dc5e1b1c68383604051611024929190612222565b60405180910390a25050565b806000803373ffffffffffffffffffffffffffffffffffffffff1673ffffffffffffffffffffffffffffffffffffffff1681526020019081526020016000205410156110b1576040517f08c379a00000000000000000000000000000000000000000000000000000000081526004016110a890611fd2565b60405180910390fd5b60006001826110c09190611ff2565b9050816000803373ffffffffffffffffffffffffffffffffffffffff1673ffffffffffffffffffffffffffffffffffffffff16815260200190815260200160002060008282546111109190611d30565b9250508190555080600360003373ffffffffffffffffffffffffffffffffffffffff1673ffffffffffffffffffffffffffffffffffffffff16815260200190815260200160002060008282546111669190611d64565b925050819055503373ffffffffffffffffffffffffffffffffffffffff167fbe28245e56c141dd9dddce73731b090cb4ca241a4d2a22a77ed6425dc5e1b1c683836040516111b5929190612271565b60405180910390a25050565b6000806000806000806000808873ffffffffffffffffffffffffffffffffffffffff1673ffffffffffffffffffffffffffffffffffffffff16815260200190815260200160002054600160008973ffffffffffffffffffffffffffffffffffffffff1673ffffffffffffffffffffffffffffffffffffffff16815260200190815260200160002054600260008a73ffffffffffffffffffffffffffffffffffffffff1673ffffffffffffffffffffffffffffffffffffffff16815260200190815260200160002054600360008b73ffffffffffffffffffffffffffffffffffffffff1673ffffffffffffffffffffffffffffffffffffffff16815260200190815260200160002054600460008c73ffffffffffffffffffffffffffffffffffffffff1673ffffffffffffffffffffffffffffffffffffffff16815260200190815260200160002054600560008d73ffffffffffffffffffffffffffffffffffffffff1673ffffffffffffffffffffffffffffffffffffffff1681526020019081526020016000205495509550955095509550955091939550919395565b806000803373ffffffffffffffffffffffffffffffffffffffff1673ffffffffffffffffffffffffffffffffffffffff1681526020019081526020016000205410156113df576040517f08c379a00000000000000000000000000000000000000000000000000000000081526004016113d690611fd2565b60405180910390fd5b60006109c4826113ef9190611ff2565b9050816000803373ffffffffffffffffffffffffffffffffffffffff1673ffffffffffffffffffffffffffffffffffffffff168152602001908152602001600020600082825461143f9190611d30565b9250508190555080600160003373ffffffffffffffffffffffffffffffffffffffff1673ffffffffffffffffffffffffffffffffffffffff16815260200190815260200160002060008282546114959190611d64565b925050819055503373ffffffffffffffffffffffffffffffffffffffff167fbe28245e56c141dd9dddce73731b090cb4ca241a4d2a22a77ed6425dc5e1b1c683836040516114e49291906122c0565b60405180910390a25050565b80600560003373ffffffffffffffffffffffffffffffffffffffff1673ffffffffffffffffffffffffffffffffffffffff168152602001908152602001600020541015611572576040517f08c379a00000000000000000000000000000000000000000000000000000000081526004016115699061235b565b60405180910390fd5b60006103e8826115829190611cff565b905081600560003373ffffffffffffffffffffffffffffffffffffffff1673ffffffffffffffffffffffffffffffffffffffff16815260200190815260200160002060008282546115d39190611d30565b92505081905550806000803373ffffffffffffffffffffffffffffffffffffffff1673ffffffffffffffffffffffffffffffffffffffff16815260200190815260200160002060008282546116289190611d64565b925050819055503373ffffffffffffffffffffffffffffffffffffffff167fbe28245e56c141dd9dddce73731b090cb4ca241a4d2a22a77ed6425dc5e1b1c6838360405161167792919061237b565b60405180910390a25050565b60046020528060005260406000206000915090505481565b80600260003373ffffffffffffffffffffffffffffffffffffffff1673ffffffffffffffffffffffffffffffffffffffff16815260200190815260200160002060008282546116ea9190611d64565b9250508190555050565b806000803373ffffffffffffffffffffffffffffffffffffffff1673ffffffffffffffffffffffffffffffffffffffff168152602001908152602001600020541015611775576040517f08c379a000000000000000000000000000000000000000000000000000000000815260040161176c90611fd2565b60405180910390fd5b60006109c4826117859190611ff2565b9050816000803373ffffffffffffffffffffffffffffffffffffffff1673ffffffffffffffffffffffffffffffffffffffff16815260200190815260200160002060008282546117d59190611d30565b9250508190555080600260003373ffffffffffffffffffffffffffffffffffffffff1673ffffffffffffffffffffffffffffffffffffffff168152602001908152602001600020600082825461182b9190611d64565b925050819055503373ffffffffffffffffffffffffffffffffffffffff167fbe28245e56c141dd9dddce73731b090cb4ca241a4d2a22a77ed6425dc5e1b1c6838360405161187a9291906123ca565b60405180910390a25050565b60016020528060005260406000206000915090505481565b34600360003373ffffffffffffffffffffffffffffffffffffffff1673ffffffffffffffffffffffffffffffffffffffff16815260200190815260200160002060008282546118ed9190611d64565b92505081905550565b80600460003373ffffffffffffffffffffffffffffffffffffffff1673ffffffffffffffffffffffffffffffffffffffff168152602001908152602001600020541015611978576040517f08c379a000000000000000000000000000000000000000000000000000000000815260040161196f90612465565b60405180910390fd5b60006005826119879190611cff565b905081600460003373ffffffffffffffffffffffffffffffffffffffff1673ffffffffffffffffffffffffffffffffffffffff16815260200190815260200160002060008282546119d89190611d30565b92505081905550806000803373ffffffffffffffffffffffffffffffffffffffff1673ffffffffffffffffffffffffffffffffffffffff1681526020019081526020016000206000828254611a2d9190611d64565b925050819055503373ffffffffffffffffffffffffffffffffffffffff167fbe28245e56c141dd9dddce73731b090cb4ca241a4d2a22a77ed6425dc5e1b1c68383604051611a7c929190612485565b60405180910390a25050565b60056020528060005260406000206000915090505481565b6109c481565b6000819050919050565b611ab981611aa6565b82525050565b6000602082019050611ad46000830184611ab0565b92915050565b600080fd5b611ae881611aa6565b8114611af357600080fd5b50565b600081359050611b0581611adf565b92915050565b600060208284031215611b2157611b20611ada565b5b6000611b2f84828501611af6565b91505092915050565b600073ffffffffffffffffffffffffffffffffffffffff82169050919050565b6000611b6382611b38565b9050919050565b611b7381611b58565b8114611b7e57600080fd5b50565b600081359050611b9081611b6a565b92915050565b600060208284031215611bac57611bab611ada565b5b6000611bba84828501611b81565b91505092915050565b600060c082019050611bd86000830189611ab0565b611be56020830188611ab0565b611bf26040830187611ab0565b611bff6060830186611ab0565b611c0c6080830185611ab0565b611c1960a0830184611ab0565b979650505050505050565b600082825260208201905092915050565b7f496e73756666696369656e74204441492062616c616e63650000000000000000600082015250565b6000611c6b601883611c24565b9150611c7682611c35565b602082019050919050565b60006020820190508181036000830152611c9a81611c5e565b9050919050565b7f4e487b7100000000000000000000000000000000000000000000000000000000600052601260045260246000fd5b7f4e487b7100000000000000000000000000000000000000000000000000000000600052601160045260246000fd5b6000611d0a82611aa6565b9150611d1583611aa6565b925082611d2557611d24611ca1565b5b828204905092915050565b6000611d3b82611aa6565b9150611d4683611aa6565b9250828203905081811115611d5e57611d5d611cd0565b5b92915050565b6000611d6f82611aa6565b9150611d7a83611aa6565b9250828201905080821115611d9257611d91611cd0565b5b92915050565b7f4441490000000000000000000000000000000000000000000000000000000000600082015250565b6000611dce600383611c24565b9150611dd982611d98565b602082019050919050565b7f4d4f4e0000000000000000000000000000000000000000000000000000000000600082015250565b6000611e1a600383611c24565b9150611e2582611de4565b602082019050919050565b60006080820190508181036000830152611e4981611dc1565b90508181036020830152611e5c81611e0d565b9050611e6b6040830185611ab0565b611e786060830184611ab0565b9392505050565b7f496e73756666696369656e74204554482062616c616e63650000000000000000600082015250565b6000611eb5601883611c24565b9150611ec082611e7f565b602082019050919050565b60006020820190508181036000830152611ee481611ea8565b9050919050565b7f4554480000000000000000000000000000000000000000000000000000000000600082015250565b6000611f21600383611c24565b9150611f2c82611eeb565b602082019050919050565b60006080820190508181036000830152611f5081611f14565b90508181036020830152611f6381611e0d565b9050611f726040830185611ab0565b611f7f6060830184611ab0565b9392505050565b7f496e73756666696369656e74204d4f4e2062616c616e63650000000000000000600082015250565b6000611fbc601883611c24565b9150611fc782611f86565b602082019050919050565b60006020820190508181036000830152611feb81611faf565b9050919050565b6000611ffd82611aa6565b915061200883611aa6565b925082820261201681611aa6565b9150828204841483151761202d5761202c611cd0565b5b5092915050565b7f424e420000000000000000000000000000000000000000000000000000000000600082015250565b600061206a600383611c24565b915061207582612034565b602082019050919050565b6000608082019050818103600083015261209981611e0d565b905081810360208301526120ac8161205d565b90506120bb6040830185611ab0565b6120c86060830184611ab0565b9392505050565b7f4d41544943000000000000000000000000000000000000000000000000000000600082015250565b6000612105600583611c24565b9150612110826120cf565b602082019050919050565b6000608082019050818103600083015261213481611e0d565b90508181036020830152612147816120f8565b90506121566040830185611ab0565b6121636060830184611ab0565b9392505050565b7f496e73756666696369656e7420555344542062616c616e636500000000000000600082015250565b60006121a0601983611c24565b91506121ab8261216a565b602082019050919050565b600060208201905081810360008301526121cf81612193565b9050919050565b7f5553445400000000000000000000000000000000000000000000000000000000600082015250565b600061220c600483611c24565b9150612217826121d6565b602082019050919050565b6000608082019050818103600083015261223b816121ff565b9050818103602083015261224e81611e0d565b905061225d6040830185611ab0565b61226a6060830184611ab0565b9392505050565b6000608082019050818103600083015261228a81611e0d565b9050818103602083015261229d81611f14565b90506122ac6040830185611ab0565b6122b96060830184611ab0565b9392505050565b600060808201905081810360008301526122d981611e0d565b905081810360208301526122ec81611dc1565b90506122fb6040830185611ab0565b6123086060830184611ab0565b9392505050565b7f496e73756666696369656e74204d415449432062616c616e6365000000000000600082015250565b6000612345601a83611c24565b91506123508261230f565b602082019050919050565b6000602082019050818103600083015261237481612338565b9050919050565b60006080820190508181036000830152612394816120f8565b905081810360208301526123a781611e0d565b90506123b66040830185611ab0565b6123c36060830184611ab0565b9392505050565b600060808201905081810360008301526123e381611e0d565b905081810360208301526123f6816121ff565b90506124056040830185611ab0565b6124126060830184611ab0565b9392505050565b7f496e73756666696369656e7420424e422062616c616e63650000000000000000600082015250565b600061244f601883611c24565b915061245a82612419565b602082019050919050565b6000602082019050818103600083015261247e81612442565b9050919050565b6000608082019050818103600083015261249e8161205d565b905081810360208301526124b181611e0d565b90506124c06040830185611ab0565b6124cd6060830184611ab0565b939250505056fea2646970667358221220f07ae578476943904b07c58f086530a8edf5476d3275e0b2cdce24e1defe59bc64736f6c634300081c0033",
  "linkReferences": {},
  "deployedLinkReferences": {}
}